:020000040040BA
:10000000E8C50120151640001116400011164000E9
:1000100011164000111640001116400000000000AB
:100020000000000000000000000000001116400069
:10003000111640000000000011164000111640008B
:100040001116400011164000111640001116400014
:10005000111640001116400011164000000000006B
:10006000111640001116400000000000110240006F
:100070002502400000000000910D400011164000D4
:1000800000000000000000001116400011164000A2
:1000900011164000A10F400011164000C90C40008D
:1000A0001116400011164000000000000000000082
:1000B000000000001116400011164000111640000B
:1000C00011164000111640001116400010B5054CE5
:1000D000237833B9044B13B10448AFF300800123F4
:1000E000237010BDC0090020000000009C79400072
:1000F0000C4B43B10C480D4910B5AFF300800C48D0
:10010000036823B910BD0A48036833B97047094B27
:10011000002BF7D0BDE810401847064B002BF5D058
:10012000184700BF000000009C794000C40900206F
:100130009C794000000000002DE9F84381460F46FD
:10014000124B984705464846114B9847054013D037
:10015000104C04F1600603E0B4420DD010345DB1E0
:100160002068B842F8D161682942F5D0E368984721
:10017000636825EA0305EFE7074B1B6823B1074BCC
:100180001B680BB148469847BDE8F883AB124000A6
:10019000AF124000DC090020B8950120500A002071
:1001A000F8B5184C2668062E29D84FF0000C644686
:1001B000154F04E00134E4B2A446A64209D3A64692
:1001C00025017D598D42F5D107EB04156D689542E7
:1001D000F0D10D4D4FEA0E1E05EB0E0445F80E1042
:1001E0006260A3600699E1600136664504BF054977
:1001F0000E6011461A46054B98470020F8BD0120B5
:10020000F8BD00BF4C0A0020DC0900207512400038
:1002100008B50B210148024B984708BD000E0E405F
:100220003901400008B50C210148024B984708BD30
:1002300000100E403901400008B51520014B9847C9
:1002400008BD00BF21154000436823F470234360BC
:100250004368090401F4702119434160704710B4E8
:1002600043F69923046914F0010F03D1013BF9D13E
:10027000012009E08368406810F0020F1CBFC3F33F
:10028000034010700B80002010BC704730B443F660
:100290009924056915F0020F03D1013CF9D1012021
:1002A0000CE0446814F0020F06D0120402F470222D
:1002B00011430BB141F08071C160002030BC704728
:1002C00032B900EB8100036B23F001030363704735
:1002D00000EB8100036B43F001030363704732B905
:1002E00000EB8100036B23F002030363704700EB14
:1002F0008100036B43F002030363704700EB81014D
:100300000B6B23F0F0030B630B6B1A430A6370470C
:1003100010B489014318022444504FF0FF31996210
:10032000196A5A6010BC7047890105234350704711
:1003300000EB8111CA61704700EB81114A6270477E
:1003400000EB8111086A7047F0B486B00224019472
:100350000824029420240394802404940A9CE40B2F
:100360000594B0EB510F14D84C0CA04217D20125C4
:1003700001AF57F82540B1FBF4F4260C84420AD3B0
:1003800086420DD90135052DF3D1002006B0F0BC11
:1003900070470020FAE70020F8E70120F6E7002583
:1003A0002AB106A901EB850151F8141C1160002B3C
:1003B000F3D01D600120E9E72A4B994249D8A3F503
:1003C0007A5399422BD910B4274CA4FB0234A40BC6
:1003D000043C264B0B449B00B2FBF3F2043AFF2C87
:1003E00039D9002101316408FF2C0DD90729F9D131
:1003F00013029BB2090401F4E0210B43E4B223434E
:100400000361002010BC7047FF2AF1D90629EFD8FC
:1004100001315208FF2AEBD90629F9D9E8E749004A
:10042000B2FBF1F2043AFF2A11D90023013352083A
:10043000FF2A01D9072BF9D1110289B21B0403F459
:10044000E0230B43D2B21A4302610020704700231D
:10045000F2E701207047FF2A88BF0021D8D8002189
:10046000C6E700BF801A0600F11976050012FD3FAD
:1004700038B504460D464FF0FF338362036A80238C
:100480000360036B082303602023036004230360DD
:100490000A684968054B9847012814BF00200120CD
:1004A0006B7A012B04BF4023236038BDB9034000A1
:1004B0000A4659B103780129C4BF417841EA0323B0
:1004C000022A04DD827842EA032300E00023184672
:1004D00070470000F8B5CC68002C4FD00B4605469D
:1004E0008E68002068604A68120202F4407242F48A
:1004F0008052097C090401F4FE010A436A60E86045
:1005000059681846224B9847E860012C0FD0012308
:100510002B6000202B6A13F4807F36D147F22F51D5
:1005200047F230574FF0010E4FF0020C19E0032351
:100530002B600120EEE70A4670460CE008B9C5F8CA
:1005400000C013F0020FF6D070462B6B3370013CE5
:1005500001363A4664B12B6A13F4807F11D1511EE3
:100560008AB1012CEAD013F0020FEED10A46F1E76E
:100570002B6A13F0010FFBD02B6A00E00124204608
:10058000F8BD0524FBE70924F9E70524F7E700BFD8
:10059000B104400070B5CD68002D35D00B4604463F
:1005A0008E68002060600A7C120402F4FE02496832
:1005B000090201F440710A436260E060596818461C
:1005C000154B9847E060236A13F4807F06D0052519
:1005D0001BE05DB1236A13F4807F18D113F0040F80
:1005E000F7D033786363013D0136F2E7236A13F4F1
:1005F000807F0ED113F0040FF8D002232360236A0A
:1006000013F0010FFBD000E00125284670BD052541
:10061000FBE70525F9E700BFB104400010B40B016A
:10062000934214D9C9004B0803EBC202B2FBF1F2AA
:10063000D3085C1E4FF6FE718C4201D9012017E0F1
:10064000416841F4002141600CE0012010E05908AC
:1006500001EBC202B2FBF3F2D3085C1E4FF6FE714F
:100660008C42F2D8120402F4E0221A430262002003
:1006700010BC70470A4BC0F8E4300023436043626B
:10068000836288230360242303604FF48073036034
:100690004FF4002303604FF400330360704700BF42
:1006A0000041535570B505460C4616460F4B98470A
:1006B00000220F4B1A60A4B13246216828460D4B28
:1006C0009847024678B96368A1680B4321690B43D8
:1006D000E1680B4306490B6069680B436B60104689
:1006E00070BD0122FBE70122F9E700BF750640005B
:1006F000540A00201D064000402303607047102369
:100700000360704781607047C160704740697047FF
:10071000436913F0020FFBD0C1F30801C16100204F
:100720007047000070B50C46097839B10546044E93
:100730002846B04714F8011F0029F9D170BD00BF49
:1007400011074000436913F0010F05D08369C3F31B
:1007500008030B6000207047012070474FF40043EE
:10076000436070470122014B1A607047580A00200D
:1007700010B582B0074B009301234FF400420B21C8
:100780000548064CA0474FF40062054B1A6002B0C2
:1007900010BD00BF65074000000E0E40A1014000E3
:1007A00000E100E000B585B013200E4B98470E4BDA
:1007B00001930E4B029301A90D480E4B98470E4B27
:1007C0004FF40022C3F88020BFF34F8FBFF36F8F29
:1007D000C3F88021002183F813131A6005B05DF877
:1007E00004FB00BF21154000000E2707801A0600F9
:1007F000008001407104400000E100E038B5094D7F
:1008000000212846084CA04701212846A047022184
:100810002846A04703212846A0470448044B984790
:1008200038BD00BF008001400D0C40004A94050116
:100830000100002010B504460846134B9847D4F831
:10084000503123F00103C4F85031D4F8583143F04B
:100850000803C4F85831D4F8503123F03003C4F8F9
:100860005031D4F8503143F02003C4F85031D4F85B
:10087000503123F40073C4F85031D4F8503123F4CC
:100880008063C4F8503110BD2115400038B50F4BBE
:1008900098470F4B98470B210E480F4B9847012262
:1008A000114607200D4B98470D4B23225A644FF4F5
:1008B00000721A601A46936813F4007FFBD0094D4A
:1008C000094C2846A0470128FBD038BDA5074000A9
:1008D00071074000000E0E4035084000ED14400046
:1008E00000040E4000800140D10A4000D0F86C3175
:1008F00013B9D0F87C3143B1D0F87C3173B9C0F86A
:100900007811C0F87C2101207047C0F86811C0F848
:100910006C210123C0F888311846704700207047C9
:100920002DE9F04300231C4A13601C4A13701C4A33
:10093000137099461B48194D4FF0010894469E4686
:10094000194F154C194E0CE085F800808CF800E02A
:10095000C7F800902B7821680B4423609146B2427F
:1009600018D010F80930DBB209F10102815CC9B27C
:10097000FF2BEFD1D829E7D0D929EBD12B78DBB2E7
:10098000012BE7D106490B7009490A60094A137027
:10099000BDE8F083BDE8F083A40A00207791012030
:1009A00074910120B80A002060910120A086010006
:1009B000A80A00206E91012070B54FF400411B4839
:1009C0001B4B98471B4B1B683BB91B4E1B4D194CCF
:1009D0003046A8472368002BFAD0144C4FF400414E
:1009E0002046174B98472046164B984746F2A812C8
:1009F00015492046154B9847D4F8603113F0080F7D
:100A000008D10D4E0D4D3046A847D4F8603113F093
:100A1000080FF8D005480E4B98470023054A13608D
:100A20000C4A13700C4B984770BD00BF000E0E406F
:100A3000A3124000580A0020D34E010001000020FC
:100A4000A7124000D5134000B80A0020ED0840006E
:100A5000ED1340006E9101202109400008B5014BC3
:100A6000984708BDD504400008B5014B984708BD1C
:100A7000950540002DE9F04186B007464C1C012544
:100A8000114EDFF8488010E02178FF2918D08DF84A
:100A90000430029530238DF814300495039201A997
:100AA0003846B04708280CD00234224614F8013CDE
:100AB000FF2BE9D0FE2BEAD14AF26A70C047F3E778
:100AC000002006B0BDE8F081690A40000100002066
:100AD000F0B593B0074601248DF8474000250C95EA
:100AE0001095FF238DF830300D940DF147030E93D0
:100AF0000F9430268DF840600DEB0601414B98476E
:100B0000009501958DF818600A238DF8083003943C
:100B1000CDF810D0059402A938463B4DA8478DF872
:100B20002C600B238DF81C30089401AB09930A94B8
:100B300007A93846A847019B009A43EA0223C3F35A
:100B40000723262B02D0012013B0F0BD0023019310
:100B500002931C238DF81C3008948DF82C6001AB97
:100B600009930A9407A93846A8471D238DF81C301D
:100B700008948DF82C6002AB09930A9407A93846B3
:100B8000A847019B7F2B01D00120DDE7029BA22B10
:100B9000FAD1002300930193029301238DF81C30B6
:100BA000089330228DF82C200A9301AB099307A9F2
:100BB0003846154CA04712ABAD2243F8402D09939F
:100BC00007A938460F4B9847CDF824D007A93846D7
:100BD000A047029B009A9A4201D00120B4E701ABE2
:100BE000099307A93846074B9847CDF824D007A9A1
:100BF0003846054B9847019B0098C01A18BF012042
:100C0000A2E700BF690A40005D0A400008B511294B
:100C10002AD8DFE801F02B092D0B0D0F1113151742
:100C2000191B1D1F21232527144922E0144920E008
:100C300014491EE014491CE014491AE0144918E054
:100C4000144916E0144914E0144912E0144910E064
:100C500014490EE014490CE014490AE0144908E074
:100C6000144906E0144904E0012008BD134900E0DE
:100C70001349144B9847002008BD00BFF875400089
:100C8000006B4000506B4000A46B4000086A4000BD
:100C9000586A4000AC6A4000547040004471400003
:100CA0003472400024734000606F40006C6E40005E
:100CB000786D40001474400008754000F86B4000E7
:100CC000F4694000750A400008B500210548064B4C
:100CD000984710F0100F04D0044A13780133DBB2A8
:100CE000137008BD00000140410340007C910120C9
:100CF00030B585B01720144B9847144D009502ABC2
:100D000003AA29460120124CA047124C029A42F431
:100D1000804200212046104B9847039AB5FBF2F21F
:100D2000002120460D4B98474FF400020C4B1A60EF
:100D30001022002120460B4B9847002120460A4BE9
:100D4000984705B030BD00BF21154000000E2707B1
:100D500049034000000001401103400031034000FE
:100D600000E100E039034000290340000122014B6B
:100D70001A707047B1950120034A1368591C11601D
:100D8000024AD054704700BF600A002080910120C1
:100D900010B50A480A4B984710F4805F00D110BD87
:100DA000084C21460548084B98470122074B1A700A
:100DB0002068C0B2064B9847F1E700BF00400240F0
:100DC0000D074000680A002045074000640A002023
:100DD000790D400008B504490448054B984710B107
:100DE0000122044B1A7008BD247640008091012036
:100DF000D11E4000A095012008B5084B984700235C
:100E000007491A46CA540133B3F57A7FFAD1002252
:100E1000044B1A600122044B1A7008BDD50D400026
:100E200080910120600A00205C0A002030B587B064
:100E30006C46124D0FCD0FC495E8030084E8030003
:100E40000E200F4B98470F4C0F4A694620460F4B18
:100E500098474FF0FF3120460D4B984720460D4BE9
:100E6000984720460C4B98474FF480420B4B1A6032
:100E7000012120460A4B984707B030BD0C76400050
:100E80002115400000400240000E2707A506400043
:100E900009074000F9064000FF06400000E100E0BD
:100EA0000507400030B583B00B200B4B98470B4C27
:100EB0000B4B009370234FF400720B212046094D19
:100EC000A8474FF40062084B1A604FF400712046A7
:100ED000064B984703B030BD21154000000E0E4070
:100EE000F90D4000A101400000E100E0A312400024
:100EF00030B59BB00C4600250F4B1D7002460F49C4
:100F000001A80F4B984701A90E480F4B98470F4B6C
:100F10001D704FF480020E4B1A630C4A0649137879
:100F2000DBB2A34202D20B78002BF8D00022024B96
:100F30001A701BB030BD00BF5C0A00203C76400038
:100F4000D51B400000400240250740007C91012055
:100F5000000E0E4030B583B00C200B4B98470B4C65
:100F60000B4B009359234FF480420C212046094D2E
:100F7000A8474FF48052084B1A604FF48041204636
:100F8000064B984703B030BD2115400000100E40BD
:100F90006D0D4000A101400000E100E0A3124000FF
:100FA000124B1B6913F0010F00D1704710B582B0CE
:100FB0000DF107020E490D480E4B98470E4A136873
:100FC000013313600D4A1368591E11600BB902B04A
:100FD00010BD0B4A1368591C11600A4AD15C0023EA
:100FE0001A460248084CA047F1E700BF00800040C5
:100FF0005E0A00205F024000A8950120A495012010
:101000009C950120B80A00208D02400010B5134CB9
:101010002046134B98470223236080232360636894
:1010200023F001036360636843F0100363600E21E3
:1010300020460C4B98470022114620460A4B984701
:10104000002211462046094B9847002211462046AF
:10105000074B984701236361236010BD0080004067
:101060003902400049024000C1024000DF02400056
:10107000FD024000074A084B1A60084B1A68084BEB
:101080001A60084B1B680133074A13600022074BA4
:101090001A707047B80A0020AC95012060910120B9
:1010A0009C950120A40A0020A4950120B40A0020E8
:1010B00008B50A4B4FF40012C3F88020BFF34F8FDE
:1010C000BFF36F8FC3F88021002183F815131A60D6
:1010D000034B9847034B984708BD00BF00E100E071
:1010E0000D104000751040000A4B1B6803B9704793
:1010F00000B5E5B0084B9847064B1A68033207491C
:101100006846074B984701216846064B984765B0EB
:101110005DF804FBA40A0020751040002C76400006
:10112000D51B4000F10E400010B50E480E4B9847FD
:101130003E2100200D4B98470D4CA0470028FCD0C5
:101140000C4B98470C4A0D4B9A620D4CA047002857
:10115000FCD010200B4B98470B4B98470148024B93
:10116000984710BD000E2707D117400069144000B2
:10117000BD144000CD144000013F132000040E4078
:10118000DD14400005144000C11640004264B1F176
:10119000C05F39D013D8B1F1006F25D0B1F1805FB5
:1011A0000AD1036F13430367436F416F0B4023EA78
:1011B00002034367426070470029FBD17047B1F1D9
:1011C000205F20D009D8B1F1005FF3D1036F134342
:1011D0000367436F13434367ECE7B1F1405F12D0FD
:1011E000B1F1605F0FD0E5E710B4016F046FD34336
:1011F00021401C4619400167436F416F0B4023405B
:101200004367426010BC7047036F016F0B4023EAD5
:1012100002030367436F13434367CBE7416412F054
:10122000010F14BF4166016612F00A0F14BF01627C
:10123000416212F0020F07D112F0080F18BFC0F878
:101240008410416101607047C0F88010F9E710B464
:10125000019C416444B9016643B1016542B94163EF
:101260000161016010BC70474166F5E74165F5E733
:101270000163F5E712F0100F10D0C0F8B01012F0B3
:10128000200F14BFC0F8D410C0F8D01012F0400FD7
:1012900014BFC0F8C010C0F8C4107047C0F8B41034
:1012A00070470164704741647047C06C7047806C40
:1012B0007047000070B582B00D46430903F5001376
:1012C00003F207735C0201F0F043B3F1005F53D007
:1012D0000AD8B3F1805F2DD0B3F1C05F3BD0B3F13A
:1012E000006F15D0002023E0B3F1405F55D0B3F17B
:1012F000605F52D0B3F1205FF4D100F01F010126EE
:101300002A4606FA01F120462F4B984730460FE057
:1013100000F01F000126864032464FF00061204653
:101320002A4B984715F0010F14BF66662666012008
:1013300002B070BD00F01F000126864032464FF01B
:1013400080512046214B984715F0010F14BF666667
:1013500026660120ECE700F01F0001268640324699
:101360004FF0C0512046194B984715F0010F14BF9C
:10137000666626660120DBE700F01F000126864036
:1013800032464FF000512046104B984715F0010FA0
:1013900014BF666626660120CAE705F0605200F0B9
:1013A0001F01012605EA06030093C5F38003B2F18D
:1013B000605F14BF0022012206FA01F12046044CAE
:1013C000A0473046B4E700BF1D1240008D11400019
:1013D0004F124000D0F8503143F00103C0F85031B3
:1013E0000122014B1A607047B8950120D0F85031A6
:1013F00023F00103C0F850310022014B1A607047FE
:10140000B8950120174A136B23F07003184310633B
:10141000936E13F0080F0AD14FF4006311498A6EDE
:1014200012F0080F03D1013BF9D1012070470D4A9A
:10143000136B23F0030343F002031363936E13F063
:10144000080F0AD14FF4006306498A6E12F0080FA4
:1014500005D1013BF9D101207047002070470020E1
:10146000704700BF00040E40C8B9114A136A090250
:1014700089B223F45C1323F0030343F45C1343F0B9
:1014800001030B431362936E13F0010FFBD0084A64
:10149000136A43F09B7343F480331362704704492B
:1014A0000B6A044A1A40044B13430B62704700BF97
:1014B00000040E40FCFFC8FE02003701024B986E8C
:1014C00000F48030704700BF00040E404FF000521F
:1014D000014B9A62704700BF00040E40024B986EA9
:1014E00000F00200704700BF00040E4010B40A4C28
:1014F0000023E362090201F47C51D2B21143074B8D
:1015000003EA00400143E1622246936E13F0040FA8
:10151000FBD010BC704700BF00040E400000FF0766
:1015200022281ED81F280CD8114B9A69012383400A
:10153000934318D0012303FA00F00D4B18610020EB
:10154000704720380A4BD3F8082101238340934386
:101550000BD0012303FA00F0054BC3F80001002073
:10156000704701207047002070470020704700BF7F
:1015700000040E4038B54FF000610320224CA04714
:101580004FF000610420A0474FF060511420A047A5
:1015900071211020A04771210F20A0471B4D294623
:1015A0001820A04729461920A04729461A20A047FD
:1015B00029461B20A04729461C20A04729461D205C
:1015C000A04729461E20A04729461F20A0474FF0CC
:1015D00080511120A0474FF000610C20A0474FF030
:1015E00000610D20A0474FF000610E20A0474FF092
:1015F00000610B20A04705F1604529460520A04762
:1016000029460620A04738BDB51240000100002839
:10161000FEE7000008B5214B214A9A4228D9214B08
:101620001E4A9A420CD2013B9B1A23F00303043357
:1016300013441B4951F8040B42F8040B9A42F9D1A8
:1016400000BF194B194A9A420AD2013B9B1A23F058
:10165000030304331344002142F8041B9A42FBD1D4
:10166000134B144A9A60144B9847144B9847FEE763
:101670000A4B0B4A9A42E3D20A4B0848181A114601
:10168000043A02440028DBD0C1F1040152F80409F5
:1016900043F8040DCA42F9D1D2E700BF0000002090
:1016A0009C794000C0090020E4950120C009002079
:1016B00000ED00E000004000E91A40007D18400005
:1016C0003C4B1B6B03F00303032B0ED8DFE803F046
:1016D000021C3838384B5B6913F0800F14BF4FF48D
:1016E00000424FF4FA42354B1A60324B1B6B03F049
:1016F0007003702B55D02F4B1A6B3049C2F3021276
:101700000B68D3400B6070472A4B1B6A13F0807F35
:1017100003D02B4A294B1A60E7E72A4A274B1A6065
:10172000244B1B6A03F07003102B05D0202BDCD157
:10173000234A224B1A60D8E7234A204B1A60D4E789
:101740001C4B1B6A13F0807F18D01D4A1B4B1A607C
:10175000184B1B6B03F00303022B164A07BF916A59
:10176000926AD16AD26A1548C1F30A41036801FB43
:101770000333D2B2B3FBF2F30360B6E7114A0F4B67
:101780001A600C4B1B6A03F07003102B05D0202B42
:10179000DED10B4A094B1A60DAE70B4A074B1A6095
:1017A000D6E7064A13680949A1FB03135B081360D7
:1017B000704700BF00040E4010140E400C000020C3
:1017C000001BB70000093D0000127A00ABAAAAAACC
:1017D000124B984211D9124B984213D9114B98428F
:1017E00014D9114B984215D9104B984294BF4FF021
:1017F00004220F4A0F4B1A6070474FF080620D4B66
:101800001A6070470C4A0B4B1A6070470B4A094B21
:101810001A6070470A4A074B1A607047FF2C310163
:10182000FF596202FF869303FFB3C404FFE0F5058E
:1018300000050004000A0E4000010004000200043C
:10184000000300040A4B1B6853B1094B1B681A18AC
:101850000849914208DB1046054A10601846704757
:10186000054A034B1A60F0E74FF0FF30704700BFA6
:101870006C0A0020FCFF0120E8C5012080B5E4B01F
:10188000734B98477348744B98470B20734CA04791
:101890000C20A047724B9847724B9847724B984761
:1018A000724B9847724B9847724B9847724B9847C8
:1018B000724B9847724B9847724B4FF400221A6153
:1018C000C3F8A0205A634FF480021A61C3F8A02025
:1018D0005A634FF480625A61C3F8A0206A4C08230F
:1018E0006361C4F8A0304FF480436366C4F890305D
:1018F00063656362C4F88030236F23F480432367F9
:10190000636F23F48043636701252561C4F8A05009
:101910006566C4F8905065656562C4F88050236FB1
:1019200023F001032367636F23F00103636765639B
:10193000564F3846564EB04725633846B0471522B5
:1019400054496846544DA847544F3846B047022181
:101950006846534CA047162252496846A847384665
:10196000B04702216846A04720224F496846A84751
:101970003846B04702216846A04719224B496846BD
:10198000A84702216846A0471B2249496846A84744
:1019900002216846A0471A2246496846A847022104
:1019A0006846A047444A45496846A8470221684618
:1019B000A0470023424A1370424A1370314D144627
:1019C000EB6B13F4806F0CD12378002BF8D001213E
:1019D0003D48334EB0470023237001213B48B047B8
:1019E000EEE7374B1B78CBB9274E0125AA46DFF827
:1019F000F090DFF8F080364FC6F834A04846244C0B
:101A0000A04735634046A0470A213248244B9847F7
:101A10003846A0472A4B1B78002BEDD0294C1A4D95
:101A2000174E05E0012128481D4B984700232370DD
:101A30002378002BF6D1EB6B13F0080FF8D0B047EA
:101A4000254B1B78002BF3D0244B9847F0E700BFC1
:101A50002911400050140E405D0740002115400040
:101A600075154000F10C40002D0E4000B1104000F3
:101A7000A50E4000550F40008D084000FD074000B6
:101A8000B9094000000E0E4000100E406E281A00EA
:101A90000100002044764000D51B4000D34E0100D9
:101AA000F10E400058764000687640007C76400099
:101AB00090764000A876400000350C00B8764000D3
:101AC000A0950120B1950120C8764000D476400051
:101AD00025511604DC7640006E910120E91040008B
:101AE00037140D00B7F28D0270B50F4E0F4D761BF7
:101AF000B61018BF002405D0013455F8043B9847B0
:101B0000A642F9D10A4E0B4D761B05F031FFB610F7
:101B100018BF002406D0013455F8043B9847A6426C
:101B2000F9D170BD70BD00BF7C7940007C79400068
:101B3000847940007C79400070B4860746D0541EFA
:101B4000002A41D0CAB2034602E014F1FF343BD36D
:101B500003F8012B9D07F8D1032C2ED9CDB245EA0D
:101B600005250F2C45EA054519D903F11002264633
:101B7000103E0F2E42F8105C42F80C5C42F8085CF4
:101B800042F8045C02F11002F2D8A4F1100222F033
:101B90000F0204F00F041032032C13440DD91E461B
:101BA0002246043A032A46F8045BFAD8221F22F0A0
:101BB00003020432134404F003042CB1C9B21C44E0
:101BC00003F8011B9C42FBD170BC704714460346CE
:101BD000C2E700BF0EB4F0B59CB021AB0F4953F87B
:101BE000042B019305466FF00044086802954FF4FA
:101BF00002774FF6FF7602A90695ADF814700494AB
:101C00000794ADF8166000F06FFA029B00221A707C
:101C10001CB0BDE8F04003B0704700BF10000020CA
:101C20002DE9F0414FF0010E744600254FF0FF36CC
:101C30002B198B4200EB06070DD23F5D10F803C055
:101C4000BC452DD21D460124A3EB060E2B198B4259
:101C500000EB0607F1D34FF00108C2F800E044465C
:101C600000254FF0FF372B19994200EB070E0ED9D4
:101C70001EF804E010F803C0F44518D91D460124ED
:101C8000A3EB07082B19994200EB070EF0D8013798
:101C9000701C874224BFC2F800803846BDE8F0813E
:101CA0000CD04FF0010E2E4674467544C0E70BD0A1
:101CB0004FF001082F4644464544D4E7744512BF0F
:101CC00001341D460124B3E7444512BF01341D46CB
:101CD0000124C8E72DE9F04FADF2144D1646054634
:101CE0008B461046194603AA1C46FFF799FF03AB23
:101CF00081460DF20C4243F8044F9342FBD14CB1A4
:101D0000631E721E04A812F8011F40F8213013F15F
:101D1000FF33F8D203994A463144304602F010FFAF
:101D200000286FD109F1FF330093F3188246019325
:101D300023468046544658469A4608EB0A073A1A04
:101D40000021284402F0ACFE002856D1002F54D0C8
:101D5000EB1904AA13F8013C52F823304BB124B11B
:101D6000039A934201D2AAEB020398440024384616
:101D7000E3E74C4523460AF1FF3E38BF4B46734527
:101D800013D208EB030216F803C0A85C84452A446A
:101D900006EB030106D02CE011F801CF12F8010F79
:101DA000844526D101337345F6D34C45009980F024
:101DB0008980009B08EB0302019BA85C1B7898427A
:101DC0002A447FD1019804F1FF3B06E010F801CDD1
:101DD00012F801EDF44503D119464B1E9B45F5D190
:101DE00001348C4270D8039C3846A044AAEB04040A
:101DF000A3E7C9F101029044B7E700200DF2144DAA
:101E0000BDE8F08FA4EB09034B4538BF4B460133C7
:101E100009F1FF38039306EB080358464FF0000A18
:101E2000CB4699460AEB04073A1A0021284402F0EF
:101E300037FE0028E1D1002FDFD0EB1904AA13F8F8
:101E4000013C52F82330A3BB611E8B4515D20AEB2F
:101E50000B0216F80B3015F802E09E452A4406EBFB
:101E60000B005B4606D027E010F801CF12F801EF17
:101E7000F44521D101338B42F6D3B8F1FF3F11D0A5
:101E80000AEB080299F80010AB5C99422A440FD182
:101E90004B4605E013F8010D12F8011D884207D1E9
:101EA000B342F7D105EB0A000DF2144DBDE8F08FF7
:101EB000039B9A443846B5E7CBF1010292449A4419
:101EC0003846AFE749468BE705EB080096E700BFC9
:101ED0000278002A00F001812DE9F04F91F800808E
:101EE00085B04446B8F1000F16D0864601F1010CCA
:101EF000012703E013F8014B6CB19C46A24214BFCA
:101F0000002707F001071EF8012F6346002AF1D1D0
:101F10009CF80030FBB917B105B0BDE8F08F0E4654
:101F2000054641460130ACEB060403F0EBF90746E9
:101F300088B1012CF0D02819874294BFC11B012120
:101F40001F2C8B460BD9234632463846FFF7C2FE7C
:101F500005B0BDE8F08F002005B0BDE8F08F03AA02
:101F600021463046FFF75CFE039980460246314425
:101F7000304602F0E5FD002857D108F1FF33009309
:101F8000F3188146054601935846B2466619321A3F
:101F90000021384402F084FD0028DCD1002EDAD084
:101FA000C845434638BF4B469C4212D95A191AF8C5
:101FB0000310B85C81423A440AEB030E06D02CE0D1
:101FC0001EF8010F12F8011F884226D101339C42EE
:101FD000F6D1C845009940F28380009BEA18019B26
:101FE000B85C1B7898423A447AD1019809F1FF3BDA
:101FF00006E010F801CD12F801EDF44503D11946C1
:102000004B1E5B45F5D109F10109894557D8039B62
:1020100030461D44A4EB0309B8E7C8F1010215449A
:102020001D444FF000093046B0E7A4EB08034345D8
:1020300038BF4346013308F1FF39039306EB090328
:1020400058460025BB469A4667193A1A002158445B
:1020500002F026FD00287FF47EAF002F3FF47BAF17
:10206000444515D908EB050216F808301BF80200A4
:1020700098425A4406EB0801434606D023E011F883
:1020800001EF12F8010F86451DD101339C42F6D1B4
:10209000B9F1FF3F12D005EB09029AF800301BF8A6
:1020A000021099425A4414D1534605E013F8010D29
:1020B00012F8011D88420CD1B342F7D15F4678195E
:1020C00005B0BDE8F08FC8F1010215441D44384643
:1020D000BAE7039B38461D44B6E70B7813B970473F
:1020E000414690E7002070472DE9F04FC3B00C4601
:1020F0000B9192460F930C9002F00EFA03681A931C
:10210000184603F07DF9A3891990190603D52369B0
:10211000002B01F0038000230DF1C80913931593E0
:1021200014932793269318931B930993CDF89490B7
:10213000C846169317939AF800305446E3B1252BFE
:1021400002D119E0252B03D014F8013F002BF9D15F
:10215000A4EB0A0585B1269B279AC8F800A0013395
:102160002A44072BC8F80450279226937FDC08F1F5
:102170000808099B2B4409932378002B7FD0002368
:102180001A468DF8773019460D939B464FF0FF3075
:1021900063780A9004F1010A0AF1010AA3F1200010
:1021A000582800F2C183DFE810F03802BF03BF03F4
:1021B0004002BF03BF03BF03BF03BF03BF0345020A
:1021C0000302BF035D006B02BF0386029D039D03F4
:1021D0009D039D039D039D039D039D039D03BF03DD
:1021E000BF03BF03BF03BF03BF03BF03BF03BF03DF
:1021F000BF0337035703BF035703BF03BF03BF0327
:10220000BF039803BF03BF03AD03BF03BF03BF03F7
:10221000BF03BF035902BF03BF031E03BF03BF03B6
:10222000BF03BF03BF03BF03BF03BF03BF03BF039E
:10223000C602DB025703570357038B02DB02BF03BF
:10224000BF039002BF039D02CC01B4020802BF038A
:10225000E101BF037E00BF03BF030D020D980F9382
:1022600040420D904BF0040B9AF8003094E725AAF9
:102270000B990C9803F032F940B9C84679E7279BCF
:1022800023B10C980B9925AA03F028F90B9B9B8985
:1022900013F0400F099B18BF4FF0FF3309930998C3
:1022A00043B0BDE8F08F1BF0200F119340F0DD81AB
:1022B0000F9A1BF0100F134640F06E851BF0400F75
:1022C00000F06A8514880432002501230F9200274C
:1022D0008DF877700A994A1C00F065822BF0800215
:1022E000079254EA050240F06482002940F03C84E1
:1022F000002B40F0D7841BF001030E9300F00486FE
:1023000042AE302306F8413D0A9B0E9A9342B8BF75
:10231000134608930023129317B1089B01330893C7
:10232000079B13F00203109302D0089B023308931B
:10233000079B13F0840540F00E830D9B089AA3EBD6
:10234000020BBBF1000F40F30683BBF1100F279C7B
:10235000269A29DD43462146A84610270C9C0B9D52
:1023600006E0ABF1100BBBF1100F03F1080318DD11
:102370000132B74826921031072A279183E881005D
:10238000EFDD25AA2946204603F0A8F800287FF4AF
:102390007DAFABF1100BBBF1100F2799269A4B467E
:1023A000E6DC45460C4698460132A94B26925C4431
:1023B000072A279488E8080800F398849DF8777026
:1023C00008F1080877B1269B013301340DF177013C
:1023D0000122072B2794269388E8060000F3DB836D
:1023E00008F10808109B6BB1269B013302341EA92B
:1023F0000222072B2794269388E8060000F3D68351
:1024000008F10808802D00F015830A9B0E9A9F1A88
:10241000002F36DD102F269B8E4D27DD42462146AC
:10242000B0464FF0100B2E460C9C0B9D04E0103F65
:10243000102F02F1080215DD01331031072B27910F
:10244000269382E84008F2DD25AA2946204603F0BB
:1024500045F800287FF41AAF103F102F2799269BCC
:102460004A46E9DC35460C464646904601333C4434
:10247000072B2794269388E8A00000F3818308F1B6
:102480000808079BDF0500F16882269B0E99C8F8B3
:10249000006001330C44072B2794C8F804102693DE
:1024A00000F34D8308F10808079B5B073AD50D9BA5
:1024B000089A9D1A002D35DD102D269B20DD102653
:1024C0000C9FDDF82CB004E0103D102D08F1080839
:1024D00016DD01335E4A26931034072B279488E8D3
:1024E0004400F1DD25AA5946384602F0F7FF0028DE
:1024F0007FF4CCAE103D102D279C269BC846E8DC0F
:102500000133534A26932C44072B279488E8240050
:1025100008DD25AA0B990C9802F0E0FF00287FF453
:10252000B5AE279C099B0D9A08998A42ACBF9B18AF
:102530005B180993002C40F00D8300232693C846B6
:10254000F9E511931BF0200340F0E3811BF010022A
:1025500040F02E841BF0400300F02A840F991346AC
:102560000A4604320C880F920025B0E60F9A1193A8
:10257000166800248DF87740151D002E00F0A78600
:102580000A9A531C00F009862146304602F088FA68
:10259000002800F0E186831B0E930A940F95CDF876
:1025A0001CB023EAE373089312949DF87770B3E6A6
:1025B0009AF8003001222B21EEE54BF0200B9AF81F
:1025C0000030E9E51193002A40F09587224B1893DB
:1025D0001BF0200F40F011810F9A1BF0100F1346D3
:1025E00040F0E1831BF0400F00F0DD8304331488DA
:1025F0000F9300251BF0010F00F00C8154EA050336
:1026000000F0088130239DF844208DF878308DF853
:1026100079204BF0020B022359E69AF8003000298A
:102620007FF4BAAD01222021B6E54BF0010B9AF8F8
:102630000030B1E50F9C23680D931846002823460F
:1026400003F10403FFF60AAE0F939AF80030A3E5F6
:102650002C7740003C7740000C7740004BF0100B8B
:102660001BF0200F11933FF423AE0F9D073525F08B
:10267000070303F10802D3E900450F92012326E680
:102680009AF800302A2B0AF1010400F02787A3F101
:1026900030000928A24600F2AD8600231C461AF835
:1026A000013B04EB840400EB4404A3F1300009284F
:1026B000F5D90A9472E54BF0800B9AF800306BE57F
:1026C0004BF0400B9AF8003066E59AF800306C2B1E
:1026D00003BF9AF801304BF0200B0AF1010A4BF0CE
:1026E000100B59E5002A40F011871BF0200F40F035
:1026F000F9841BF0100F40F0AC841BF0400F00F089
:10270000A8840F9A136804320F92BDF824201A800F
:1027100011E50F99B34B0C681893302278230431DC
:102720008DF8793011934BF0020B0F9100258DF845
:1027300078200223CBE50F9911930A688DF8A02029
:1027400000230A461F468DF8773004320123089390
:10275000CDF81CB00A9712970F920E9328AEDFE5C2
:102760001193002A40F0EA861BF0200F5DD11BF088
:10277000100F40F008831BF0400F00F004830F9906
:10278000B1F900400431E51722462B460F91002A8B
:1027900073F1000358DB0A999DF877704A1C4FF0DB
:1027A00001037FF49BAD54EA050200F0DF81CDF810
:1027B0001CB0012B00F07B82022B40F0068218989F
:1027C0004E46230904F00F0143EA05732A091C460B
:1027D0001546435C06F8013D54EA0503F1D1A9EB27
:1027E00006030E9390E51193002A40F0A3867E4BDA
:1027F00018931BF0200F3FF4EFAE0F9D073525F027
:10280000070303F108021BF0010F0F92D3E9004503
:102810007FF4F4AE02235AE51193002A40F0868635
:102820004BF0100B1BF0200FA1D00F9D073525F0AA
:102830000705D5E90023002A05F108011D4673F1BB
:1028400000030F911446A6DA2D27644265EB450577
:102850008DF8777001233DE51193002A40F06286E0
:102860000F9D073525F0070303F108020F921A6840
:1028700015925B681493149B159D23F00044284621
:1028800021464FF0FF32594B03F0EEFE002840F096
:102890004A83284621464FF0FF32544B03F0C6FED0
:1028A000002840F0408315A80DC8149903F0B4FE29
:1028B000002840F030859DF877704D4E4D4B2BF041
:1028C0008000079011980322002108920A9147285E
:1028D000D8BF1E460E9212911EE54BF0080B9AF8D7
:1028E000003059E4A3F1300000231C461AF8013BE4
:1028F00004EB840400EB4404A3F130000928F5D96B
:102900000D944BE44BF0100B11931BF020033FF49C
:102910001DAE0F9D073525F0070303F10802D3E92B
:1029200000450F920023D2E41193002A40F0E7857E
:10293000119A002A3FF4A3AC002301211F460891FD
:102940008DF8A020CDF81CB08DF877300A93129343
:102950000E9128AEE4E4279C34E5119B652B40F3EF
:10296000A78015A80DC8149903F04CFE002800F0AC
:102970005081269B204AC8F80020013301340122EF
:10298000072B27942693C8F8042000F36A8308F1E4
:1029900008081F9B139A279C934203DB079BDD07C4
:1029A0007FF582AD269B19991A9AC8F80020013349
:1029B0000C44072BC8F804102794269300F39E8339
:1029C00008F10808139B5E1E002E7FF76DAD102ED8
:1029D000269B0A4D40F3F58122461027DDF830B0E2
:1029E0000B9C13E00C774000F8764000FFFFEF7F70
:1029F000EC764000E8764000287740003C774000C5
:102A000008F10808103E102E40F3DA81013310322D
:102A1000072B2792269388E8A000F1DD25AA2146FE
:102A2000584602F05BFD00287FF430AC279A269BC5
:102A3000C846E7E70D9B089A9F1A002F7FF7E5AC81
:102A4000102F269BB64D27DD42462146B0464FF05B
:102A5000100B2E460C9C0B9D04E0103F102F02F132
:102A6000080215DD01331031072B2791269382E8E8
:102A70004008F2DD25AA2946204602F02FFD002855
:102A80007FF404AC103F102F2799269B4A46E9DCBF
:102A900035460C464646904601333C44072B279466
:102AA000269388E8A00000F3328208F10808ACE41D
:102AB000139B269F012B40F3FE8101370134012334
:102AC000072F27942697C8F80060C8F8043000F351
:102AD000038208F10808199A1A9BC8F800300137D8
:102AE0001444072F27942697C8F8042000F3008287
:102AF00008F1080815A80DC8149903F083FD139B6D
:102B0000002840F00181013B013701361C44072FAA
:102B100026972794C8F80060C8F8043000F327818E
:102B200008F108081B9AC8F804200137144421ABA7
:102B3000072F27942697C8F800307FF7B3AC25AA53
:102B40000B990C9802F0CAFC00287FF49FAB279CDD
:102B5000C846A9E425AA0B990C9802F0BFFC0028EE
:102B60003FF4EBACFFF792BBDDF81CB0012B00F09B
:102B70003481022B25D1CDF81CB0002400251EE69F
:102B800025AA0B990C9802F0A9FC00287FF47EABD3
:102B9000279CC84675E425AA0B990C9802F09EFC68
:102BA00000287FF473AB279CC8461BE425AA0B9929
:102BB0000C9802F093FC00287FF468AB279CC84671
:102BC00020E4CDF81CB000240025494600E0314641
:102BD000E20842EA4572E80804F007030546144695
:102BE000303354EA050201F8013C01F1FF36EED121
:102BF000079AD2077FF5F3AD302B3FF4F0AD0239E1
:102C0000302306F8013CA9EB01030E930E46FFF7B3
:102C10007BBB1F99002940F32E82129B139A93428B
:102C2000A8BF1346002B1F460DDD269BC8F8006089
:102C300001333C44072B2794C8F80470269300F313
:102C40001F8308F10808129B002FA8BFDB1B002B75
:102C50001F4640F3D680102F269B314D40F3ED8167
:102C600042462146B0464FF0100B2E460C9C0B9D61
:102C700004E00832103F102F40F3DB8101331031A4
:102C8000072B2791269382E84008F2DD25AA2946E2
:102C9000204602F023FC00287FF4F8AA2799269BFF
:102CA0004A46E7E70A9B0E934E46FFF72DBB002DE1
:102CB00008BF0A2CC0F08F804E46204629460A22C3
:102CC000002303F00FFD303206F8012D204629467F
:102CD00000230A2203F006FD04460D4654EA0503CC
:102CE000EBD1A9EB06030E93FFF70EBB25AA0B99B8
:102CF0000C9802F0F3FB00287FF4C8AA9DF87770C7
:102D0000279CC846FFF75EBB5E1E002E7FF70AAF0A
:102D1000102E034D22DD22464FF0100B0C9C06E0D6
:102D20003C774000103E102E08F1080815DD0137F1
:102D30001032072F2792269788E82008F2DD25AA6F
:102D40000B99204602F0CAFB00287FF49FAA103E90
:102D5000102E279A269FC846E9DC144601373444D2
:102D6000072F2794269788E860007FF7D9AE25AA19
:102D70000B990C9802F0B2FB00287FF487AA279CDD
:102D8000269FC846CEE60F9A146813460433E5170B
:102D90000F9322462B46FAE404321C680F9201235B
:102DA0000025FFF794BA1C6804330F93002521E433
:102DB0000F990A4604320C680F920025FFF787BA74
:102DC000144601333444072B2794269388E8600087
:102DD0007FF768ABB3E6DDF81CB0CDF81CB042AEAF
:102DE0003034012306F8414D0E93FFF78DBA25AA22
:102DF0000B990C9802F072FB00287FF447AA279CDD
:102E0000C8461F9A139B9A4244DB079BD90741D4BB
:102E1000139B12989A1A1D1A9542A8BF1546002DA9
:102E20000EDD2699C8F80450013106442C440729C8
:102E3000C8F800602794269100F33B8208F1080847
:102E4000002DACBF561B1646002E7FF72DAB102E63
:102E5000269BB04DB5DD22461027DDF830B00B9C27
:102E600004E008F10808103E102EA9DD01331032ED
:102E7000072B2792269388E8A000F2DD25AA214699
:102E8000584602F02BFB00287FF400AA279A269BC5
:102E9000C846E8E7269B19981A99C8F8001001332C
:102EA0000444072B2794C8F80400269300F3F58107
:102EB00008F10808ACE7079BDA073FF5FEAD0137DC
:102EC00001340123072F27942697C8F80060C8F81B
:102ED00004307FF725AE4AE725AA0B990C9802F03B
:102EE000FDFA00287FF4D2A9279C269FC846F2E568
:102EF00025AA0B990C9802F0F1FA00287FF4C6A9D4
:102F0000279C269FC846F5E54E46FFF7FDB925AA42
:102F10000B990C9802F0E2FA00287FF4B7A9279CDD
:102F2000C846FFF772BA159C22462046149C2346D9
:102F3000214603F099FB002840F086820A9B01336A
:102F4000119B23F020030E9300F0E281472B00F049
:102F50001E814BF480730793149B1F1E159B0893CF
:102F6000BBBF3B4603F1004700232D231093119B69
:102F7000662B00F0BB81462B00F0DF800E9B089A89
:102F8000452B0CBF0A9B0A9D23A820A908BF5D1CE6
:102F9000049003911FA802213B46029001950091E5
:102FA0000C9800F075FB119B672B064640F0E08102
:102FB0001BF0010F00F046827419169A0898179BAF
:102FC000394603F01FFB002840F06581239BA34294
:102FD00006D230215A1C23921970239B9C42F9D8A7
:102FE0009B1B13930E9B472B00F0E980119B652BD5
:102FF00040F3CD81119B662B1F9B129300F09E81A5
:10300000139B129A1946914200F38A811BF0010F1B
:1030100040F0138222EAE273089367230E92119321
:10302000109B002B40F0C4800A939DF87770FFF747
:1030300073B935460C464646904601333C44072B4F
:103040002794269388E8A0003FF7D1AE08F108083E
:10305000D7E60F9A136804320F92099A1A60FFF7A5
:103060006AB825AA0B990C9802F038FA00287FF468
:103070000DA9C8468DE4269B274AC8F800200133D5
:1030800001340122072B27942693C8F8042072DC10
:1030900008F1080829B9139B1BB9079BD8077FF5CE
:1030A00003AA269B19981A9AC8F8002001330246F1
:1030B0002244072B2792C8F80400269300F38D8141
:1030C00008F108080029C0F265811399C8F800606A
:1030D00001338C18072B27942693C8F804107FF728
:1030E000E1A92CE50F9A09991368CD170846043217
:1030F00029460F92C3E90001FFF71DB825AA0B99D5
:103100000C9802F0EBF900287FF4C0A8279CC84671
:1031100058E400BF3C7740002877400040210C98DD
:1031200001F00CFA0B9A10601061002800F0F28197
:103130000B9A40235361FEF7EEBF23A820A90A9CF7
:10314000049003911FA803210290089A01943B4622
:1031500000910C9800F09CFA25460646119B462BE0
:1031600006EB05047FF429AF3378302B00F078812B
:103170001F9D2C4421E725AA0B990C9802F0AEF96B
:1031800000287FF483A81F99279CC84682E70A9BE2
:10319000002B08BF01230A93DBE630460A9402F0B5
:1031A0002FF90F950E90CDF81CB00346FFF7F9B933
:1031B0002D2700238DF877700A93FFF7AEB81F9B79
:1031C00012931A46033304DB0A9B19469142BFF659
:1031D00017AF119B023B11939DF844308DF884305A
:1031E000129B013B002B1F93BDBF129BC3F1010338
:1031F0002D222B22092B8DF8852040F316810DF10D
:1032000093042046AB4D00E0104685FB0312D9170E
:10321000C1EBA20101EB8102A3EB4202303209298A
:1032200000F8012C0B4600F1FF32EDDC30330238A0
:10323000D9B2844202F8011C40F265810DF186008A
:10324000134601E013F8011B00F8011BA342F9D15A
:1032500001339B1A0DF18602134421AA9B1A139A7B
:103260001B93012A13440E9340F319810E9B199A64
:1032700013440E9323EAE373089300231293CFE6DB
:1032800025AA0B990C9802F029F900287EF4FEAFCC
:10329000279CC846D7E42346A2E625AA0B990C989A
:1032A00002F01CF900287EF4F1AF1F9A279CC84653
:1032B000AEE525AA0B990C9802F010F900287EF4CF
:1032C000E5AF1F9A139B279C9A1AC846B8E50A9B3C
:1032D0001296062B28BF06230A96374608930F95A9
:1032E000CDF81CB00E93744EFFF716B823A820A992
:1032F0000A9D049003911FA803210290089A01954A
:103300003B4600910C9800F0C3F9064644192BE7A0
:1033100006230A931DE62D278DF87770FFF7CDBAA7
:10332000199A139B1344129A0E93002A40F3B0800B
:1033300023EAE37308936723119371E6002B40F3AC
:10334000C3800A9A002A40F099801BF0010F40F0D8
:10335000958008930E9363E60A9B08930E930A9058
:103360000F95CDF81CB012909DF87770FEF7D4BF82
:10337000119B472B7FF420AE1BF0010F7FF4EEAEC4
:10338000239B9B1B13930E9B472B3FF418AF1F9B54
:10339000129321E74F421031484D2FDA1024DDF807
:1033A00030B004E008F10808103F102F26DD01338B
:1033B0001032072B27922693C8F80050C8F8044013
:1033C000F0DD25AA0B99584602F088F800287EF413
:1033D0005DAF279A269BC846E6E725AA0B990C986D
:1033E00002F07CF800287EF451AF1F99279A269BA3
:1033F000C84667E600200A90FEF7D0BE01333A4483
:10340000072B88E8A0002792269308F108087FF789
:103410005CAE25AA0B990C9802F060F800287EF4A7
:1034200035AF279A269BC8464FE6303330228DF8B9
:1034300087308DF8862022AB0FE7129B199A134430
:103440000E9375E7239BCBE5149B1D4E002BB6BF57
:103450002D279DF877708DF877701A4BFFF72FBAEC
:10346000169A0898179B394603F0CCF800287FF489
:103470007FAEC5F101051F952C449EE5129B199A5C
:1034800013440A9A1A4422EAE2730E920893C7E59B
:10349000129B0E9AC3F101031A441346D0E71BF0A6
:1034A000010312937FF4E2AE0E9B23EAE3730893C9
:1034B000B6E500BF67666666207740003C7740004F
:1034C000F4764000F07640000A9B13B91BF0010F20
:1034D00002D0199B0133D4E701233AE70F9D9AF8F4
:1034E0000130286840EAE0700A9028460430A2467D
:1034F0000F90FEF751BE8DF87710FFF767B88DF883
:103500007710FFF715BA0DF18603A6E68DF8771050
:10351000FFF7EBB80C9A0C2313604FF0FF330993BD
:10352000FEF7BDBE8DF87710FFF79AB98DF87710CA
:10353000FFF776B98DF87710FFF759B98DF8771046
:10354000FFF712B9024B13B1024800F005B87047FB
:1035500000000000E5444000002301461A461846DA
:1035600002F03AB802690B69934200F38D802DE9AD
:10357000F04F03F1FF3801F1140700F1140B57F875
:1035800028205BF828304FEA880483B00132B3FB6F
:10359000F2F90BEB0403009407EB040A0193B9F171
:1035A000000F39D000252E46BC46DE465CF8044BA1
:1035B000DEF80030A2B209FB0255220C2C0C09FBEC
:1035C0000242ADB2751B96B2C6EB134615FA83F3F1
:1035D00006EB23469BB243EA0643E2454FEA124517
:1035E0004EF8043B4FEA2646E0D2009B5BF80330DE
:1035F00093B9019C231F9B450CD254F8043C4BB952
:10360000A4F1080302E01A68043B1AB99B4508F1CB
:10361000FF38F8D3C0F81080044601F065FD00289B
:103620002EDB09F101095D46002357F8041B2868C9
:103630008AB29A1A0B0C12FA80F2C3EB104303EB16
:10364000224392B242EA0342BA4545F8042B4FEABC
:103650002343EAD25BF828200BEB880382B91A1FB8
:1036600093450BD253F8042C42B9083B02E01A6888
:10367000043B1AB99B4508F1FF38F8D3C4F8108011
:10368000484603B0BDE8F08F0020704700000000FE
:103690002DE9F04F016C9BB00446279E92469B4655
:1036A00041B1426C4A60012393408B6001F044FBBE
:1036B00000232364BBF1000F5D4635DB002333603C
:1036C0009D4BAB4315D0504659460022002302F0D3
:1036D00099FF804600282DD0269A01231360289B4D
:1036E000002B00F0BD809548186001381BB0BDE884
:1036F000F08F269A42F20F731360BAF1000F0DD1CA
:10370000C5F3130555B9289B8D48002BEED000F169
:103710000803289A13601BB0BDE8F08F289B8948E6
:10372000002BE3D0C31CF4E701232BF000453360EA
:10373000AB46C5E718AA19AB0192009352465B4607
:10374000204601F071FD2B0D814671D0CBF31302A1
:1037500042F07F51189FCDF850805046A3F2FF36BB
:1037600041F440110022784B02F030FB6CA3D3E906
:10377000002302F0DFFC6CA3D3E9002302F028FB56
:10378000CDE90201304602F06FFC69A3D3E90023C2
:1037900002F0D0FC02460B46DDE9020102F018FB04
:1037A000CDE9040102F076FF002202900023DDE95A
:1037B000040102F031FF002840F07381029D162DB4
:1037C00000F25D81614B03EBC503D3E90001524672
:1037D0005B4602F03FFF002800F0C5816B1E02939C
:1037E00000230E93BF1B7B1E069300F15481002320
:1037F0000893029B002BC0F24581069A0D93114657
:103800001944002306910C93249B092B2AD8052BDD
:1038100040F35B86043B24930025249B023B032B4F
:1038200000F24286DFE813F0D403C902DF0361042B
:10383000189F199E3E4406F23243202B40F38E819E
:10384000C3F1400306F212409D402AFA00F02843DB
:1038500002F0FAFB0123013EA1F1F871149381E714
:103860003B4843E7002161642046259101F03EFA80
:103870004FF0FF330A93259A0F930123049020649D
:1038800024920B93199B002BC0F2D980029A0E2A26
:1038900000F3D5802D4B03EBC203D3E90023CDE920
:1038A0000823259B002BC0F2BA83DDE90856504659
:1038B0002A463346594602F067FD02F0EBFE804689
:1038C00002F0D2FB2A46334602F034FC0B46024695
:1038D0005946504602F07AFA049D08F130032B70E5
:1038E0000A9B012B06460F4605F1010568D0002210
:1038F000184B02F01FFC0022002306460F4602F080
:1039000081FE002840F08880CDF82C904FF0000A0E
:10391000DFF840B00C94DDE9088928E0AFF30080BF
:1039200061436F63A787D23FB3C8608B288AC63FC5
:10393000FB799F501344D33F0000F07F297740006C
:103940004C774000587740000000F83F88774000EF
:10395000287740000000244002F0ECFB0022002306
:1039600006460F4602F04EFE002840F0C183424654
:103970004B463046394602F007FD02F08BFE044606
:1039800002F072FB42464B4602F0D4FB02460B4665
:103990003046394602F01AFA04F1300E049E05F85A
:1039A00001EBA5EB060E0A9EB645CDE9060152468F
:1039B0005B46D1D1A046DDF82C900C9C06460F4604
:1039C00032463B463046394602F002FA06460F467A
:1039D00002460B46DDE9080102F01EFE48B93246F8
:1039E0003B46DDE9080102F00DFEA8B118F0010F19
:1039F00012D015F8018C049A6B1E04E09A4200F074
:103A0000018413F8018DB8F1390F03F10105F5D0E8
:103A100008F1010883F800804946204601F08CF93E
:103A20000022029B2A70269A01331360289B002BE8
:103A300000F09E8304981D601BB0BDE8F08F0B9AC8
:103A4000002A3ED0249A012A40F311830A9B0C9A43
:103A50005F1EBA42C0F28F83D71B0A9B002BC0F2B5
:103A60008B84089D0A9B089A1A440892069A0121A1
:103A70001A442046069201F0F9F9064624E0012393
:103A80000E93AFE6089A029BD21A5B420C93002376
:103A900008920D93B8E6C7F101030893002306933B
:103AA000A7E6029D284602F0DFFA02460B46DDE952
:103AB000040102F0A7FD00287FF480AE6B1E029384
:103AC0007CE60C9F089D0B9E002D0CDD06990029BD
:103AD0000B4608DDA942089AA8BF2B46D21AED1A58
:103AE000CB1A089206930C9BD3B10B9B002B00F0D2
:103AF000B782002F10DD31463A46204601F052FAD7
:103B00004A4601460646204601F0BAF94946804633
:103B1000204601F011F9C1460C9BDA1B40F0A1824E
:103B20000121204601F0A2F90D9B002B80461CDDEF
:103B300001461A46204601F035FA249B012B8046A7
:103B400040F3548200230C93D8F8103008EB830321
:103B5000186901F03BF9C0F1200010E0C3F1200525
:103B60000AFA05F074E60E903CE6249B012B40F324
:103B7000878200230C930D9B0120002BE4D1069A31
:103B8000104410F01F0000F0A180C0F12003042BAE
:103B900040F39E84089BC0F11C0003440893134625
:103BA000034405440693089B002B05DD49461A464D
:103BB000204601F047FA8146069B002B05DD414671
:103BC0001A46204601F03EFA80460E9B002B40F03C
:103BD00086800A9B002B40F366820B9B002B00F033
:103BE0009880002D05DD31462A46204601F02AFA4C
:103BF00006460C9B002B40F0378306960A9B049ADE
:103C0000DDF818B0013BD3180B930AF001030C93B5
:103C10001746C24651464846FFF7A4FC31460546C2
:103C2000484601F061FA5A460A905146204601F092
:103C300077FAC268804605F13003002A40F02B82F3
:103C400001464846089301F04FFA41460690204647
:103C500001F072F8069A089B32B9249921B90C9A9E
:103C6000002A00F0EF83249A0A990029C0F29F826B
:103C700005D1249919B90C99002900F09882002ADD
:103C800000F306830B9A3B7007F101089742454603
:103C900000F00C83494600230A22204601F056F822
:103CA0005E45814631464FF000034FF00A02204640
:103CB00000F0EB8101F04AF85946064600230A223B
:103CC000204601F043F847468346A3E71C20089BA3
:103CD00003440893069B03440544069363E7414667
:103CE000484601F001FA0028BFF673AF029F49462B
:103CF00000230A222046013F029701F027F80B9B80
:103D00008146002B40F0B6830F9B002B40F3BF830E
:103D10000A93DDF810B00A9F5D4602E001F016F844
:103D2000814641464846FFF71DFC00F1300A05F880
:103D300001ABA5EB0B03BB424FF00A024FF00003AF
:103D400049462046EADB049B0A9A012AACBF9B182D
:103D500001331D464FF0000B49460122204601F079
:103D600071F94146814601F0BFF9002840F33D82D8
:103D700015F8012C04996B1E04E08B4200F0AE8113
:103D800013F8012D392A03F10105F6D001321A701A
:103D90004146204600F0D0FF002E3FF43DAEBBF17F
:103DA000000F05D0B34503D05946204600F0C4FFAC
:103DB0003146204600F0C0FF2EE600230B93029B05
:103DC000259A13440F930133012B1F461E460A9375
:103DD000B8BF01270021172F61640AD901220423EB
:103DE0005B0003F114008742114602F10102F7D291
:103DF0006164204600F07AFF0E2E049020643FF6A6
:103E000041AD002D3FF43EAD02990029CDE910AB44
:103E100040F30282B84B01F00F020D1103EBC20315
:103E2000E906D3E9006740F1AE81B44B50465946EC
:103E3000D3E9082302F0A8FACDE9120105F00F0535
:103E40004FF0030A8DB1DFF8B482EA0709D5304696
:103E50003946D8E9002302F06DF90AF1010A064655
:103E60000F466D1008F10808EFD13B463246DDE9F8
:103E7000120102F089FA074688460E9B43B10022E0
:103E80009F4B3846414602F0C7FB002840F086822F
:103E9000504602F0E9F83A46434602F04BF9994B96
:103EA000002201F095FF0A9B0546A1F15076002BF8
:103EB00000F03E81029B15930A9B12930B9B002BF3
:103EC00000F0FA81129A8C4B8F4903EBC20353E93D
:103ED0000223002002F058FA2A46334601F076FF0A
:103EE00082468B463846414602F0D4FB054602F036
:103EF000BBF802460B463846414601F067FF3035B5
:103F00005FFA85F8049D06460F4685F80080024654
:103F10000B4650465946013502F09CFB002854D10F
:103F200032463B460020764901F050FF02460B46E0
:103F30005046594602F08EFB002840F07082129ADB
:103F4000012A00F01181129B049ACDF84890134485
:103F500099460DE000206A4901F038FF52465B4661
:103F600002F05AFB002840F058824D4500F0FA80DC
:103F7000504659460022654B02F0DCF80022634BA4
:103F800082468B463046394602F0D4F80F46064644
:103F900002F080FB804602F067F802460B4630468E
:103FA000394601F013FF08F130085FFA88F85246ED
:103FB0005B4605F8018B06460F4602F02DFB3246A4
:103FC0003B460028C6D0DDF84890159B029323E5B8
:103FD00000230B93259B002B40F3DC801F461E46DD
:103FE0000F930A93F6E601230B93F3E7BAF1000F60
:103FF0007FF4A8ADCBF31303002B7FF4BAAD2BF005
:1040000000473F0D3F05002F00F00D82089B013354
:104010000893069B0133069301230C93ABE50A9B9F
:10402000002B3FF742AC40F021820022384BDDE903
:10403000080102F07FF852465B4602F001FBDDF812
:1040400028804646002841D0259B049DDB430293EF
:104050004146204600F070FE002E3FF4DDACA7E69E
:104060000C9A4946204600F09DFF814658E5149A77
:10407000002A00F0878103F233430C9F089DF2E48D
:10408000BAF1000F7FF475ADB4E700F05FFE47466C
:1040900006468346BEE501462046069300F04CFEE8
:1040A0000122069BE0E5249B022B7FF796AD0A9B3D
:1040B000002BC9D141460522204600F047FE0146AB
:1040C0008046484601F010F80028BDDD029A0499A8
:1040D0003123013202920B704D1CB9E7029A013272
:1040E0000292049A3123137052E601230B9366E681
:1040F000DDF82C900C9C8FE48877400060774000BE
:104100000000F03F00001C400000E03F00002440A1
:1041100000001440504601F0A7FF3A46434602F023
:1041200009F80022C14B01F053FE0546A1F150767B
:1041300041460022BE4B384601F048FE2A4633462F
:1041400082468B4602F086FA8046002840F01081B5
:104150002A4606F100435046594602F05DFA18B16E
:10416000464671E7DDF84890DDE910ABFFF78ABB02
:104170000498FFF7BBBA0C9B0D9A0C97FB1A1A44D4
:104180000D92002769E4DDE910234FF0020ACDE922
:10419000122357E60021012361642046259300F095
:1041A000A5FD259B049020640A930F9329E6002A1D
:1041B000D046CDF818B09A4611DD49460122204676
:1041C00000F040FF4146814600F08EFF002840F39A
:1041D0004681BAF1390F00F0068105F1310AB34684
:1041E00087F800A07D1C069ED2E504D11AF0010FCD
:1041F00001D0BDE5154615F8013C302B05F1FF3225
:10420000F8D0C5E5049930220A70029A15F8018C9D
:1042100001320292FFF7FCBB00F0BB80029B5D42C3
:10422000844B05F00F0203EBC203D3E90023DDE961
:10423000100101F07FFF2D110746884600F02C8108
:104240007D4E4FF0020AEB0709D538464146D6E9C4
:10425000002301F06FFF0AF1010A074688466D103E
:1042600006F10806EFD108E67168204600F03EFD31
:10427000336902339A00054606F10C010C3000F058
:104280008FFC29460122204600F0DCFE0690B5E4B2
:10429000392BCDF818B0D04600F0A58003F1010A03
:1042A000B34687F800A07D1C069E71E55A46D046AD
:1042B000B3469A4616464FE5129B5E4901EBC30191
:1042C0002A46334651E9020101F034FFCDE91601D7
:1042D0003846414602F0DEF9054601F0C5FE0B46C0
:1042E00002464146384601F071FD129B0F46049983
:1042F0003035012B0D70064601F1010526D0129BC9
:10430000049ADFF83CB1CDF8489013444FF0000A0E
:10431000994652465B463046394601F00BFF0F4640
:10432000064602F0B7F9804601F09EFE08F130081B
:1043300002460B463046394601F048FD05F8018B30
:104340004D4506460F46E4D1DDF848903B4B002230
:10435000DDE9160101F03CFD32463B4602F05CF916
:10436000002846D0159B029315F8018CFFF743BB3C
:104370004FF000084646A9E6089B0A9A9D1A0023BA
:10438000FFF771BB189B0C9F089DC3F13603FFF725
:104390006ABBDDE910784FF0020A6EE50A9B002B3C
:1043A0003FF4B8AE0F9B002B7FF7DEAE0022244B0C
:1043B0003846414601F0BEFE074688460AF1010034
:1043C00001F052FE3A46434601F0B4FE0022174B7C
:1043D00001F0FEFC029A0F9B1293013A0546A1F1EF
:1043E000507615926AE53922B3463A70069E7D1CD6
:1043F000C0E4DDE916230020104901F0E7FC324655
:104400003B4602F027F908B9AEE6154615F8013C1F
:10441000302B05F1FF32F8D0D7E5DDF84890159B39
:104420000293FFF7E8BA0C97FFF7A5BB00001C400A
:104430000000144088774000607740000000E03FB3
:1044400000002440392BCDF818B0D046DDF828B054
:104450009A46C8D0BBF1000F3FF7BFAEBFE67FF46E
:10446000BEAE1AF0010F3FF4BAAEB2E64FF000084C
:104470004646E9E5314600230A22204600F066FC64
:104480000F9B002B06460ADD0A93FFF7AABB249B6D
:10449000022B23DC0F9B3BE44FF0020AEDE4249B4C
:1044A000022B1BDC0F9BEFE70025656429462046A5
:1044B00000F01CFC4FF0FF330A930F93012304908C
:1044C000259520640B93FFF7DDB90125FFF7A5B90A
:1044D0003FF469ABC0F13C00FFF7F9BB0F9B0A93B7
:1044E000E5E500BF38B50A4C0A4D641BA4100AD09C
:1044F00004F18043013B05EB8305013C55F8043989
:104500009847002CF9D1BDE8384003F03BBA00BF12
:104510009479400090794000044A054B1268506B32
:10452000002808BF1846F030704700BF1000002078
:1045300054080020704700BF704700BF2DE9F04FBE
:1045400001F10B06162E83B0054640F29E8036F030
:10455000070600F1BD80B14200F2BA8000F0BAFB5C
:10456000B6F5FC7FC0F09382730A00F0B880042B8C
:1045700000F27981B30903F1390003F1380EC30069
:10458000BF4F3B44A3F108015C68A14206D10CE097
:10459000002A80F2AA80E468A14206D0636823F072
:1045A00003039A1B0F2AF3DD70463C69DFF8E4E24F
:1045B000744500F0AB81636823F003039A1B0F2A54
:1045C00000F39081002AC7F814E0C7F810E080F2E9
:1045D0009D80B3F5007F80F06181DB0803F1010C61
:1045E00099107A6857F83C80C4F8088001238B4002
:1045F00007EBCC0113430839E1607B6047F83C408E
:10460000C8F80C408210012494409C4200F28B8038
:104610001C4206D120F0030064001C4200F104009B
:10462000FAD007EBC009CC468046DCF80C309C453C
:1046300007D16DE1002A80F27B81DB689C4500F0A8
:104640006781596821F003018A1B0F2AF2DDD3F834
:104650000CC0D3F8088000939C19284646F0010648
:1046600042F001055E60C8F80CC0CCF808807C619F
:104670003C61C4F80CE0C4F808E065605A5000F0F2
:104680002FFB009B03F108041EE0102920D800F046
:1046900021FB102618230220794F3B44A3F1080286
:1046A0005C68944200F03D816368E168A66823F08D
:1046B0000303234428465A68F16042F001028E60E9
:1046C0005A6000F00DFB0834204603B0BDE8F08FBF
:1046D00000240C2320462B6003B0BDE8F08F40205F
:1046E0004FF400734FF03F0E4AE72344E1685A68E5
:1046F000A66842F00102F16028468E605A6000F020
:10470000EFFA0834204603B0BDE8F08F2344284672
:104710005A6842F001025A6000F0E2FA083420467A
:1047200003B0BDE8F08FBC68636823F00308B045B0
:1047300004D3A8EB06030F2B00F38580DFF8589114
:10474000504BD9F800201B680132334404EB080AAF
:1047500000F0558103F580530F3323F47F6B2BF06A
:104760000F0B5946284600F0BBFD411C024600F0E5
:10477000FC80824500F2F780434B19685944196068
:1047800000F04D81D9F8000001301BBFA2EB0A0AEE
:104790005144C9F80020196012F0070100F015819A
:1047A000C1F10800C1F580510244083102EB0B0948
:1047B000C9F30B09A1EB0909494628460193009268
:1047C00000F08EFD431C9DE80C0000F04381801A30
:1047D000484440F001001968BA604944BC42506046
:1047E000196017D0B8F10F0F40F2FB806068A8F194
:1047F0000C0222F0070204EB020E00F001004FF061
:10480000050C10430F2A6060CEF804C0CEF808C033
:1048100000F217811D4BBC681A68914288BF19606D
:104820001B4B1A689142626888BF196022F003022C
:104830009642A2EB060301D80F2B04DC284600F0B9
:104840004FFA002440E7A21943F0010346F00106A5
:1048500066602846BA60536000F042FA0834204689
:1048600003B0BDE8F08F142B71D9542B00F2A38054
:10487000330B03F16F0003F16E0EC30080E600BF3F
:1048800044040020A00A0020700A0020980A00209A
:104890009C0A00204C0400204C0800205A0A042ADC
:1048A0005BD9142A00F2AE8002F15C01C9005B32D0
:1048B00007EB010C7958ACF1080C8C4500F08880AE
:1048C0004A6822F00302934273D289688C45F7D17B
:1048D000DCF80C207B68E260C4F808C09460CCF877
:1048E0000C408FE6A11946F0010C42F00106C4F815
:1048F00004C0284679613961C1F80CE0C1F808E0CC
:104900004E60E25000F0ECF90834DDE67B6879E6B1
:1049100008F1010818F0030F0CF1080C7FF485AEC4
:104920002DE0DC68A34208BF02303FF43EAEBBE698
:1049300019441C464A68DB6854F8086F42F00102CB
:104940004A602846F3609E6000F0CAF9BCE603F1B5
:104950005C0003F15B0EC30012E69A0902F1390113
:10496000C9003832A4E7BC4254D0BC68626822F067
:1049700003025DE759F80839994540F0868010F048
:10498000030F00F1FF30F5D17B6823EA04037B605D
:1049900064009C423FF6C7AE002C3FF4C4AE1C42FC
:1049A00040467FF43EAE64001C4200F10400FAD0A1
:1049B00037E68C468CE7B3F5AA7F15D8F30B03F1E5
:1049C000780003F1770EC300DAE54FF48051EDE68D
:1049D0007B689210012101FA02F213437B60624668
:1049E00079E70123536029E740F25452934222D8D9
:1049F000B30C03F17D0003F17C0EC300C0E503F1AD
:104A0000100BAEE6542A29D81A0B02F16F01C90027
:104A10006E324DE7204B196859441960B2E6CAF36B
:104A20000B0000287FF4AEAE08EB0B03BA6843F02E
:104A300001035360EEE67F204FF47E734FF07E0E4D
:104A40009EE504F108012846009300F0A7FE009BB4
:104A50001968DFE601204FF00009BCE6B2F5AA7F35
:104A600005D8DA0B02F17801C900773220E740F26D
:104A700054518A4205D89A0C02F17D01C9007C325A
:104A800016E74FF47E717E2212E77B6880E7F0081C
:104A900006F1080300E600BF700A002000000000D5
:104AA00001F0FF01102A2BDB10F0070F08D010F8DF
:104AB000013B013A8B422DD010F0070F42B3F6D1E3
:104AC000F0B441EA012141EA014122F007047FF0FC
:104AD00000070023F0E80256083C85EA010586EA53
:104AE000010685FA47F5A3FA87F586FA47F6A5FA8F
:104AF00087F68EB9EED1F0BC01F0FF0102F007029B
:104B000032B110F8013B013A83EA010313B1F8D145
:104B10000020704701387047002D06BF3546033826
:104B2000073815F0010F07D1013015F4807F02BF5F
:104B3000013015F4C03F0130F0BC0138704700BFB0
:104B4000032A70B422D940EA01039B0711D00378ED
:104B50000C78A3421DD10A44013105E010F8013F51
:104B600011F8014BA34214D19142F7D1002070BC3F
:104B700070470D680668AE420C46034601F1040119
:104B800000F1040008D1043A032AF2D8002ADED149
:104B9000ECE7181B70BC704721461846D7E700BFEA
:104BA000844641EA000313F003036DD1403A41D338
:104BB00051F8043B40F8043B51F8043B40F8043BF7
:104BC00051F8043B40F8043B51F8043B40F8043BE7
:104BD00051F8043B40F8043B51F8043B40F8043BD7
:104BE00051F8043B40F8043B51F8043B40F8043BC7
:104BF00051F8043B40F8043B51F8043B40F8043BB7
:104C000051F8043B40F8043B51F8043B40F8043BA6
:104C100051F8043B40F8043B51F8043B40F8043B96
:104C200051F8043B40F8043B51F8043B40F8043B86
:104C3000403ABDD2303211D351F8043B40F8043B26
:104C400051F8043B40F8043B51F8043B40F8043B66
:104C500051F8043B40F8043B103AEDD20C3205D336
:104C600051F8043B40F8043B043AF9D2043208D02E
:104C7000D2071CBF11F8013B00F8013B01D30B88A0
:104C800003806046704700BF082A13D38B078DD07E
:104C900010F003038AD0C3F10403D21ADB071CBF50
:104CA00011F8013B00F8013B80D331F8023B20F8BA
:104CB000023B7BE7043AD9D3013A11F8013B00F8F3
:104CC000013BF9D20B7803704B7843708B7883707B
:104CD000604670470148FFF72DBC00BFCC9501200E
:104CE0000148FFF729BC00BFCC950120C36C70B50B
:104CF00005460C464BB153F8240080B1026843F8D6
:104D0000242000230361C36070BD2122042100F030
:104D1000C5FCE86403460028EDD1002070BD0121E8
:104D200001FA04F6721D2846920000F0B7FC002834
:104D3000F3D044608660E4E731B1C36C4A6853F84D
:104D40002200086043F82210704700BFF0B50C69DC
:104D500083B00D46064601F1140E0027DEF8000070
:104D600081B202FB0133010C180C02FB01019BB262
:104D7000013703EB0143BC424EF8043B4FEA1143B9
:104D8000ECDC3BB1AA68944207DA05EB84020134FB
:104D900053612C61284603B0F0BD6968019301316D
:104DA0003046FFF7A3FF2A69023205F10C010746DE
:104DB00092000C30FFF7F4FEF26C6968019B52F828
:104DC0002100286042F821503D46DEE7020C120423
:104DD0000346B2B90304102013F07F4F04BF1B0237
:104DE000083013F0704F04BF1B01043013F0404F24
:104DF00004BF9B000230002B02DB5B0003D42020A9
:104E000070470020E8E70130704700BF036813F0E7
:104E10000702014607D0DA0721D4980721D49B085E
:104E20000B600220704798B298B1104613F0FF0F44
:104E300004BF1B0A08301A0704BF1B0904309A0775
:104E400004BF9B080230DA0707D45B0804D1202096
:104E500070471B0C1020E9E701300B607047002001
:104E600070475B080B600120704700BF10B50C460F
:104E70000121FFF73BFF01224461026110BD00BF29
:104E80002DE9F04F0C691569AC4283B08B4616468C
:104E900004DA2246B3462C460E461546DBF80830A7
:104EA000DBF8041004EB05089845C8BF0131FFF793
:104EB0001DFF00F1140909EB880AD145009005D2C5
:104EC0004B46002143F8041B9A45FBD806F1140C0D
:104ED0000CEB85030BF1140B9C450BEB840E4CD2B1
:104EE000CDF804A09A46DCF80050AFB2EFB1002133
:104EF0004D465E460C4656F8042B286893B281B2A4
:104F000007FB0313120C010C234407FB021101EBF6
:104F100013419BB243EA0143B64545F8043B4FEACF
:104F20001144E8D82C60DCF800502D0C1DD0D9F8C5
:104F3000003048461C46594600220E88240C05FBCA
:104F4000064422449BB243EA024340F8043B51F832
:104F5000043B04681B0CA6B205FB036303EB12437E
:104F60008E454FEA1342E8D803600CF1040CE24589
:104F700009F10409B7D8DDF804A0B8F1000F0BDD82
:104F80005AF8043CAAF1040A1BB105E05AF8043DA2
:104F900013B9B8F10108F9D10098C0F8108003B036
:104FA000BDE8F08F12F003032DE9F04114460746E7
:104FB0002ED10D46A4101CD0BE6C96B3E3074FF063
:104FC000000806D4641014D03068A8B10646E30780
:104FD000F8D5324629463846FFF752FFB5B16A6820
:104FE000FB6C641053F82210296043F822500546E8
:104FF000EAD12846BDE8F081324631463846FFF70F
:105000003FFF3060C0F800800646E0E70546D9E77C
:105010005A1E0B4D002355F82220FFF797FE054638
:10502000C8E701213846FFF761FE40F271210122F5
:105030000023416102610646B8640360BEE700BF19
:10504000507840002DE9F84391460A698B684FEA91
:10505000691404EB020808F101059D420E4607465B
:10506000496804DD5B009D4201F10101FADC38462C
:10507000FFF73CFE002C00F1140306DD03EB840275
:10508000002143F8041B9A42FBD1346906F1140154
:1050900019F01F0901EB840E1DD0C9F1200C00226C
:1050A0000C6804FA09F4144343F8044B51F8042B38
:1050B0008E4522FA0CF2F3D81A600AB108F1020503
:1050C000FB6C7268013D53F822100561316043F8B2
:1050D0002260BDE8F883043B51F8042B43F8042F09
:1050E0008E45F9D8ECE700BF30B40B69054600697E
:1050F000C01A0FD19B001435143119442B4401E020
:105100009D4207D253F8044D51F8042D9442F7D034
:1051100002D3012030BC70474FF0FF30FAE700BFE8
:105120002DE9F0410F690E4611697F1A002F904654
:1051300017D1890006F1140502F1140E6B187144A1
:1051400001E09D425CD253F8042D51F8044DA24277
:10515000F7D05ED233462C46464675469846012720
:1051600005E058DB06F1140508F114040027716806
:10517000FFF7BCFDD8F810303669C76004EB830C2C
:10518000A64605EB860700F1140400235EF8041B15
:1051900055F8048B8AB213FA88F3090C9A1AC1EBFA
:1051A000184303EB224392B242EA0342F44544F827
:1051B000042B4FEA2343E9D8AF4217D9A446AE46A1
:1051C0005EF8042B13FA82F3191401EB12419BB21F
:1051D00043EA014277454CF8042B4FEA2143EFD8CC
:1051E000ED432F4427F0030704373C44043C22B925
:1051F00054F8043D013E002BFAD00661BDE8F08171
:105200000021FFF773FD0122002302614361BDE825
:10521000F0817446ABE7334606F1140402F114053D
:10522000164601279846A2E72DE9F04182B00121F8
:105230001C46C3F30A571546089EFFF757FDC4F3F3
:10524000130480460FB144F4801401941DB302A8E6
:1052500040F8085DFFF7DAFD002834D19DE80C0026
:10526000C8F81420002B0CBF01210221C8F8183007
:10527000C8F81010DFB908EB8103A0F232403060AB
:105280001869FFF7A3FD099BC0EB41101860404669
:1052900002B0BDE8F08101A8FFF7B8FD019BC8F896
:1052A000143001212030C8F81010002FE3D0099BE2
:1052B000A7F233470744C0F1350037601860404615
:1052C00002B0BDE8F0819DE80A00C0F1200203FAB7
:1052D00002F20A43C3400193C8F81420C2E700BF9A
:1052E00038B5074C0023054608462360FCF7AAFAA8
:1052F000431C00D038BD2368002BFBD02B6038BD89
:10530000E0950120C9B2002941D08207F0B467D0EE
:105310000378002B68D0994237D0431C04E013F87F
:10532000010B90B381422FD09A071C46F7D1256814
:1053300041EA012343EA034383EA0506A6F101306B
:10534000A5F1013220EA060022EA0502024312F02A
:10535000803F11D1204650F8046F83EA0607A7F179
:105360000135A6F1013225EA070522EA06022A43A1
:1053700012F0803FEFD00446207818B905E014F809
:10538000010F10B18142FAD12046F0BC704783076B
:1053900024D00378002BF9D0431C03E002780133BA
:1053A000002AF3D099071846F8D11968A1F1013203
:1053B00022EA010212F0803F08D153F8041FA1F144
:1053C000013222EA010212F0803FF6D01A78184624
:1053D00042B110F8013F002BFBD170470346E4E7D0
:1053E0000446A4E7184670471846CEE700000000C0
:1053F00000000000000000000000000000000000AD
:1054000090F800F06DE9024520F007016FF0000C04
:1054100010F0070491F820F040F049804FF00004AC
:105420006FF00700D1E9002391F840F000F1080087
:1054300082FA4CF2A4FA8CF283FA4CF3A2FA8CF3BF
:105440004BBBD1E9022382FA4CF200F10800A4FA26
:105450008CF283FA4CF3A2FA8CF3E3B9D1E904237A
:1054600082FA4CF200F10800A4FA8CF283FA4CF3B1
:10547000A2FA8CF37BB9D1E9062301F1200182FA6B
:105480004CF200F10800A4FA8CF283FA4CF3A2FA71
:105490008CF3002BC6D0002A04BF04301A4612BA7F
:1054A000B2FA82F2FDE8024500EBD2007047D1E982
:1054B000002304F00305C4F100004FEAC50514F011
:1054C000040F91F840F00CFA05F562EA05021CBFE2
:1054D00063EA050362464FF00004A9E72DE9F04FA7
:1054E000936883B09046002B70D082460C461768B4
:1054F0008D68086842E0A38913F4906F2ED0656927
:10550000216905EB4505A0EB010B05EBD5750BF10A
:1055100001006D103044A8422A4684BF05462A4641
:105520005B0538D511465046FFF708F800283CD0F7
:105530005A4621690190FFF733FBA289019B22F4AF
:10554000906242F08002A281A5EB0B0203EB0B00FC
:10555000656123612060A2603546B3465A464946DC
:1055600000F018FAD8F80830A2682068551B584493
:105570009E1BA5602060C8F808603EB37E683B466D
:105580000837002EFAD0AE42D3F80090AB46B2D224
:105590003546B346E2E7504600F060FA034600287D
:1055A000D2D12169504600F0F9F80C23CAF8003036
:1055B000A389002243F040034FF0FF30A381C8F8D5
:1055C0000820C8F8042003B0BDE8F08F0020C8F818
:1055D000040003B0BDE8F08F2DE9F8432C4D0646DA
:1055E000286898460F469146FEF7A4FF294B1C6891
:1055F000D4F84831002B3ED05A681F2A1CDC02F137
:10560000010E76B103EB82010124C1F88890D3F832
:10561000880194402043022EC3F88801C1F8088114
:1056200023D00232C3F804E0286843F82270FEF762
:1056300083FF0020BDE8F883174B0BB34FF4C8700D
:10564000AFF300800346D8B1D4F8482102600021AE
:1056500041600A46C4F848014FF0010EC0F88811B5
:10566000C0F88C11002EDCD0CCE7D3F88C110C43A1
:10567000C3F88C41D5E704F5A673C4F84831BBE7FD
:105680002868FEF759FF4FF0FF30BDE8F88300BFF0
:1056900040040020E47640000000000010B502FB4A
:1056A00001F1FEF74BFF0446D8B150F8042C22F06C
:1056B0000302043A242A18D8132A14D900231B2AD7
:1056C0000360436016D9242A8360C36011BF00F1D0
:1056D00010020361436100F118020023136053605C
:1056E0009360204610BD0246F7E70021FCF724FA3C
:1056F000204610BD00F10802EFE700BFF8B5244FC7
:105700000C460646FFF7E6FABB685D68C4F57E61A5
:105710000F3125F00305294421F47F6121F00F01A9
:10572000A1F58054B4F5805F07DB00213046FFF718
:10573000D7FDBB682B44984204D03046FFF7D0FA1F
:105740000020F8BD61423046FFF7CAFD01300DD0A0
:10575000104BBA6819682D1B45F001053046091B2E
:1057600055601960FFF7BCFA0120F8BD00213046F2
:10577000FFF7B6FDBA68831A0F2BDEDD064C05492C
:10578000246843F00103001B53600860D5E700BFA5
:1057900044040020700A00204C080020002944D056
:1057A0002DE9F0410D468046FFF794FA55F8047C48
:1057B000694927F00103A5F10804E2188E685068D2
:1057C000B24220F003005ED0FE0750600BD455F8C3
:1057D000087CE41B01F1080EA56875453B446DD0BB
:1057E000E768EF60BD6015186D68ED073ED543F0C2
:1057F00001026260E350B3F5007F17D2DB08581C4A
:105800009A104D6851F83070A7600123934001EB66
:10581000C0022B43083AE2604B6041F83040FC6024
:105820004046BDE8F041FFF75BBA70475A0A042AC8
:1058300052D89A0902F13907FF0002F13805C81958
:10584000CA59083890424FD0516821F003018B4269
:1058500032D292689042F7D1C368A060E3609C6046
:10586000C4604046BDE8F041FFF73ABA95683B4F47
:10587000BD42034440D0D068E86043F00102856037
:105880006260E350B7E7FF07034407D455F8082CDC
:10589000A41A1344A068E268C2609060304A12689B
:1058A00043F00100934260608C60B9D32D4B4046B9
:1058B0001968FFF723FFB3E71046CDE711184968D1
:1058C000C90744D49168D268CA60034443F0010018
:1058D00091606060E350A3E7142A16D802F15C07D8
:1058E000FF0002F15B05AAE7AA1001234D6893406F
:1058F0002B434B600346B0E743F001024C610C615F
:10590000E560A5606260E3508AE7542A06D81A0B66
:1059100002F16F07FF0002F16E0590E7B2F5AA7F72
:1059200006D8DA0B02F17807FF0002F1770586E767
:1059300040F25450824206D89A0C02F17D07FF00D3
:1059400002F17C057BE74FF47E777E2577E743F015
:1059500001016160136063E7440400204C040020EF
:1059600050080020A00A002082B049B15AB16BB1A2
:1059700013780B601278101C18BF012002B070471A
:1059800001A9002AF3D1104602B070476FF0010060
:10599000F4E700BF8842F0B50DD98B1898420AD2BF
:1059A0008418002A51D0224613F8014D02F8014D07
:1059B0009942F9D1F0BD0F2A48D941EA00039B076B
:1059C00046D100F1100401F11003154653F8106C94
:1059D00044F8106C53F80C6C44F80C6C53F8086CD9
:1059E00044F8086C103D53F8046C44F8046C0F2D17
:1059F00003F1100304F11004E8D8A2F1100323F01E
:105A00000F0302F00F0E1033BEF1030F19440344CD
:105A100021D91E1F0D467446043C55F8047B46F8F8
:105A2000047F032CF8D8AEF1040424F003040434FA
:105A30002144234402F0030262B1013B0A4411F8FD
:105A4000014B03F8014F8A42F9D1F0BD0346F3E759
:105A50000346F2E7F0BD7246EEE700BF002900F012
:105A600095802DE9F04F0D46164683B0804606F12D
:105A70000B07FFF72FF955F804EC162F2EF003044F
:105A8000A5F108093CD810221746BE423DD89442E1
:105A900043DAC44B996809EB0400884200F0B480F3
:105AA000436823F0010101444968C9074CD51EF041
:105AB000010F00F09B8031464046FEF73FFD064651
:105AC00000283AD055F8043C23F001034B44A0F1E0
:105AD00008029A4200F02181221F242A00F2078145
